:100000000C942A000C94B5000C9464000C943400F9
:100010000C9434000C9434000C9434000C94340090
:100020000C9434000C9434000C9434000C94340080
:100030000C9434000C9434000C9434000C94340070
:100040000C9434000C9434000C9434000C94340060
:100050000C94340011241FBECFE5D8E0DEBFCDBF25
:100060000E9452000C9415010C94000081B38E7F05
:1000700081BB85B7886085BF85B7846085BF8BB736
:1000800080688BBF7894089581B38B7F81BB85B7DF
:10009000826085BF85B7816085BF8BB780648BBF69
:1000A0007894089587E690E00E9406010E94360049
:1000B0000E9444008AB380648ABB8AB380688ABB8A
:1000C00081B3806281BBFFCF1F920F920FB60F9258
:1000D00011242F933F934F935F936F937F938F934D
:1000E0009F93AF93BF93EF93FF938FE60E940F010F
:1000F0008BB380688BBB2FEF81EE94E02150804062
:100100009040E1F700C000008BB38F778BBB2FEFDF
:1001100081EE94E0215080409040E1F700C0000063
:1001200082E88FBD8AE18EBD8FE39CE997BD86BDD5
:100130001DBC1CBC87B3826087BB87B3806287BB52
:1001400082E894E19BBD8ABDFF91EF91BF91AF9191
:100150009F918F917F916F915F914F913F912F91DF
:100160000F900FBE0F901F9018951F920F920FB611
:100170000F9211242F933F934F935F936F937F932D
:100180008F939F93AF93BF93EF93FF9383E60E9468
:100190000F018BB380648BBB2FEF81EE94E0215075
:1001A00080409040E1F700C000008BB38F7B8BBB99
:1001B0002FEF81EE94E0215080409040E1F700C0A5
:1001C000000082E88FBD8AE18EBD8FE39CE997BD78
:1001D00086BD1DBC1CBC87B3826087BB87B38062B1
:1001E00087BB80E496E09BBD8ABDFF91EF91BF91F4
:1001F000AF919F918F917F916F915F914F913F91BF
:100200002F910F900FBE0F901F9018952AB1286163
:100210002AB920B5266820BD89B990BD08955D9B97
:0E022000FECF8CB95E9BFECF0895F894FFCF01
:00000001FF
