S0210000526F6F6D5F6C696768745F5377697463685F526563656976652E73726563FC
S11300000C942A000C94F9000C94C0000C94340055
S11300100C9434000C9434000C9434000C9434008C
S11300200C9434000C9434000C9434000C9434007C
S11300300C9434000C9434000C9434000C9434006C
S11300400C9434000C9434000C9434000C9434005C
S11300500C94340011241FBECFE5D8E0DEBFCDBF21
S11300600E9452000C9445010C94000081B3877FD8
S113007081BB85B7886085BF85B7846085BF8BB732
S113008080688BBF7894089581B38B7F81BB85B7DB
S1130090826085BF85B7816085BF8BB780648BBF65
S11300A07894089587E690E00E9432010E94360019
S11300B00E94440084B3806484BB84B3806284BBA4
S11300C08AB380648ABB8AB380688ABB87B3826040
S11300D087BB81B3806281BB0E9441018F36D9F412
S11300E085B3806485BB85B38F7D85BB82E88FBD76
S11300F08AE18EBD8FE39CE997BD86BD1DBC1CBC07
S113010087B3826087BB87B3806287BB80EB94E050
S11301109BBD8ABDE1CF8336F9F685B3806285BB8A
S113012085B38F7B85BB8BB380648BBB2FEF81EE54
S113013094E0215080409040E1F700C000008BB370
S11301408F7B8BBB2FEF81EE94E021508040904059
S1130150E1F700C0000082E88FBD8AE18EBD8FE325
S11301609CE997BD86BD1DBC1CBC87B3826087BB60
S113017087B3806287BB88E493E09BBD8ABDACCF24
S11301801F920F920FB60F9211242F933F934F9308
S11301905F936F937F938F939F93AF93BF93EF93EB
S11301A0FF938FE60E943B0182E88FBD8AE18EBDFA
S11301B08FE39CE997BD86BD1DBC1CBC87B38260E0
S11301C087BB87B3806287BB80EB94E09BBD8ABD0D
S11301D0FF91EF91BF91AF919F918F917F916F911B
S11301E05F914F913F912F910F900FBE0F901F90F1
S11301F018951F920F920FB60F9211242F933F93CD
S11302004F935F936F937F938F939F93AF93BF931A
S1130210EF93FF9383E60E943B0182E88FBD8AE15E
S11302208EBD8FE39CE997BD86BD1DBC1CBC87B306
S1130230826087BB87B3806287BB88E493E09BBD01
S11302408ABDFF91EF91BF91AF919F918F917F9163
S11302506F915F914F913F912F910F900FBE0F902F
S11302601F9018952AB128612AB920B5266820BDA7
S113027089B990BD08955D9BFECF8CB95E9BFECF7E
S111028008955F9BFECF8CB10895F894FFCFD4
S9030000FC
